{
  "contractName": "RiddleContract",
  "abi": [
    {
      "constant": true,
      "inputs": [],
      "name": "getRiddleCount",
      "outputs": [
        {
          "name": "riddleCount",
          "type": "uint256"
        }
      ],
      "payable": false,
      "stateMutability": "view",
      "type": "function"
    },
    {
      "constant": true,
      "inputs": [
        {
          "name": "qa",
          "type": "bytes32"
        }
      ],
      "name": "getRiddleAtHash",
      "outputs": [
        {
          "name": "exists",
          "type": "bool"
        },
        {
          "name": "solved",
          "type": "bool"
        },
        {
          "name": "reward",
          "type": "uint256"
        },
        {
          "name": "asker",
          "type": "address"
        },
        {
          "name": "solver",
          "type": "address"
        },
        {
          "name": "question",
          "type": "string"
        },
        {
          "name": "answer",
          "type": "string"
        }
      ],
      "payable": false,
      "stateMutability": "view",
      "type": "function"
    },
    {
      "constant": false,
      "inputs": [
        {
          "name": "question",
          "type": "string"
        },
        {
          "name": "answer",
          "type": "string"
        }
      ],
      "name": "answerRiddle",
      "outputs": [],
      "payable": false,
      "stateMutability": "nonpayable",
      "type": "function"
    },
    {
      "constant": false,
      "inputs": [
        {
          "name": "question",
          "type": "string"
        },
        {
          "name": "answerHash",
          "type": "bytes32"
        }
      ],
      "name": "askRiddle",
      "outputs": [],
      "payable": true,
      "stateMutability": "payable",
      "type": "function"
    },
    {
      "constant": true,
      "inputs": [
        {
          "name": "answer",
          "type": "string"
        }
      ],
      "name": "generateHash",
      "outputs": [
        {
          "name": "answerHash",
          "type": "bytes32"
        }
      ],
      "payable": false,
      "stateMutability": "pure",
      "type": "function"
    },
    {
      "constant": true,
      "inputs": [
        {
          "name": "key",
          "type": "uint256"
        }
      ],
      "name": "getRiddleAtKey",
      "outputs": [
        {
          "name": "exists",
          "type": "bool"
        },
        {
          "name": "solved",
          "type": "bool"
        },
        {
          "name": "reward",
          "type": "uint256"
        },
        {
          "name": "asker",
          "type": "address"
        },
        {
          "name": "solver",
          "type": "address"
        },
        {
          "name": "question",
          "type": "string"
        },
        {
          "name": "answer",
          "type": "string"
        }
      ],
      "payable": false,
      "stateMutability": "view",
      "type": "function"
    },
    {
      "inputs": [],
      "payable": false,
      "stateMutability": "nonpayable",
      "type": "constructor"
    },
    {
      "anonymous": false,
      "inputs": [
        {
          "indexed": false,
          "name": "question",
          "type": "string"
        },
        {
          "indexed": false,
          "name": "answer",
          "type": "string"
        },
        {
          "indexed": false,
          "name": "solver",
          "type": "address"
        },
        {
          "indexed": false,
          "name": "reward",
          "type": "uint256"
        },
        {
          "indexed": false,
          "name": "answerHash",
          "type": "bytes32"
        }
      ],
      "name": "Solved",
      "type": "event"
    }
  ],
  "bytecode": "0x6060604052341561000f57600080fd5b610ac28061001e6000396000f3006060604052600436106100775763ffffffff7c010000000000000000000000000000000000000000000000000000000060003504166347099af2811461007c5780635da9ab57146100a15780638797dbcc146101cb5780639facb5c614610260578063b063152a146102a8578063cb3ecbf7146102f9575b600080fd5b341561008757600080fd5b61008f61030f565b60405190815260200160405180910390f35b34156100ac57600080fd5b6100b7600435610316565b6040518715158152861515602082015260408101869052600160a060020a0380861660608301528416608082015260e060a082018181529060c0830190830185818151815260200191508051906020019080838360005b8381101561012657808201518382015260200161010e565b50505050905090810190601f1680156101535780820380516001836020036101000a031916815260200191505b50838103825284818151815260200191508051906020019080838360005b83811015610189578082015183820152602001610171565b50505050905090810190601f1680156101b65780820380516001836020036101000a031916815260200191505b50995050505050505050505060405180910390f35b34156101d657600080fd5b61025e60046024813581810190830135806020601f8201819004810201604051908101604052818152929190602084018383808284378201915050505050509190803590602001908201803590602001908080601f0160208091040260200160405190810160405281815292919060208401838380828437509496506104d095505050505050565b005b61025e60046024813581810190830135806020601f8201819004810201604051908101604052818152929190602084018383808284375094965050933593506107f492505050565b34156102b357600080fd5b61008f60046024813581810190830135806020601f8201819004810201604051908101604052818152929190602084018383808284375094965061090695505050505050565b341561030457600080fd5b6100b760043561096b565b6001545b90565b60008060008060006103266109c3565b61032e6109c3565b6000888152602081815260409182902080546001808301546002808501546003860154600487018054979960ff8089169a610100998a9004909116999698600160a060020a03958616989490951696929560058d0195879585161502600019019093169290920491601f8301819004810201905190810160405280929190818152602001828054600181600116156101000203166002900480156104135780601f106103e857610100808354040283529160200191610413565b820191906000526020600020905b8154815290600101906020018083116103f657829003601f168201915b50505050509150808054600181600116156101000203166002900480601f0160208091040260200160405190810160405280929190818152602001828054600181600116156101000203166002900480156104af5780601f10610484576101008083540402835291602001916104af565b820191906000526020600020905b81548152906001019060200180831161049257829003601f168201915b50505050509050975097509750975097509750975050919395979092949650565b6000806000836040518082805190602001908083835b602083106105055780518252601f1990920191602091820191016104e6565b6001836020036101000a03801982511681845116179092525050509190910192506040915050518091039020925084836040518083805190602001908083835b602083106105645780518252601f199092019160209182019101610545565b6001836020036101000a0380198251168184511617909252505050919091019283525050602001905060405190819003902060008181526020819052604090205490925060ff1615806105ca5750600082815260208190526040902054610100900460ff165b156105d457600080fd5b6000828152602081905260409020805461ff001916610100178155600381018054600160a060020a03331673ffffffffffffffffffffffffffffffffffffffff1990911617905560050184805161062f9291602001906109d5565b506000828152602081905260409081902060010154600160a060020a0333169181156108fc02919051600060405180830381858888f19350505050151561067557600080fd5b50600081815260208190526040908190206003810154600182015491927f705e741e99e685de2e0a945c9d0af3117d21707b7750c2464caa9da9159a9c1f9260048501926005860192600160a060020a039091169190889051600160a060020a0384166040820152606081018390526080810182905260a08082528654600261010060018316150260001901909116049082018190528190602082019060c0830190899080156107665780601f1061073b57610100808354040283529160200191610766565b820191906000526020600020905b81548152906001019060200180831161074957829003601f168201915b50508381038252875460026000196101006001841615020190911604808252602090910190889080156107da5780601f106107af576101008083540402835291602001916107da565b820191906000526020600020905b8154815290600101906020018083116107bd57829003601f168201915b505097505050505050505060405180910390a15050505050565b600034151561080257600080fd5b82826040518083805190602001908083835b602083106108335780518252601f199092019160209182019101610814565b6001836020036101000a0380198251168184511617909252505050919091019283525050602001905060405190819003902060008181526020819052604090205490915060ff161561088457600080fd5b60008181526020819052604090208054600160ff1990911681178255349082015560028101805473ffffffffffffffffffffffffffffffffffffffff191633600160a060020a03161790556004018380516108e39291602001906109d5565b50600180548082016108f58382610a53565b506000918252602090912001555050565b6000816040518082805190602001908083835b602083106109385780518252601f199092019160209182019101610919565b6001836020036101000a038019825116818451161790925250505091909101925060409150505180910390209050919050565b600080600080600061097b6109c3565b6109836109c3565b600060018981548110151561099457fe5b90600052602060002090015490506109ab81610316565b959f949e50929c50909a509850965090945092505050565b60206040519081016040526000815290565b828054600181600116156101000203166002900490600052602060002090601f016020900481019282601f10610a1657805160ff1916838001178555610a43565b82800160010185558215610a43579182015b82811115610a43578251825591602001919060010190610a28565b50610a4f929150610a7c565b5090565b815481835581811511610a7757600083815260209020610a77918101908301610a7c565b505050565b61031391905b80821115610a4f5760008155600101610a825600a165627a7a723058201197daaae9d2688cbf6d7f78ba2340fb6de8c101f0856004fce39617a8d2a8900029",
  "source": "pragma solidity ^0.4.17;\n\ncontract RiddleContract {\n\n  function RiddleContract() public {}\n\n  /* ---------- */\n\n  struct Riddle {\n    bool exists;\n    bool solved;\n    uint256 reward;\n    address asker;\n    address solver;\n    string question;\n    string answer;\n  }\n  mapping(bytes32 => Riddle) riddles;\n  bytes32[] riddleKeys;\n  \n  /* ---------- */\n\n  event Solved(\n    string question, \n    string answer, \n    address solver, \n    uint256 reward, \n    bytes32 answerHash);\n\n  /* ---------- */\n\n  function generateHash (string answer) public pure returns (bytes32 answerHash) {\n    return keccak256(answer);\n  }\n\n  function getRiddleCount () public view returns (\n    uint256 riddleCount\n  ) {\n    return riddleKeys.length;\n  }\n\n  function getRiddleAtKey (uint256 key) public view returns (\n    bool exists, \n    bool solved, \n    uint256 reward, \n    address asker, \n    address solver, \n    string question, \n    string answer\n  ) {\n    bytes32 qa = riddleKeys[key];\n    return getRiddleAtHash(qa);\n  }\n\n    function getRiddleAtHash (bytes32 qa) public view returns (\n    bool exists, \n    bool solved, \n    uint256 reward, \n    address asker, \n    address solver, \n    string question, \n    string answer\n  ) {\n    Riddle storage riddle = riddles[qa];\n    return (\n      riddle.exists, \n      riddle.solved, \n      riddle.reward, \n      riddle.asker, \n      riddle.solver, \n      riddle.question, \n      riddle.answer);\n    }\n\n  /* ---------- */\n\n  function askRiddle(string question, bytes32 answerHash) public payable {\n    if (msg.value == 0) revert();\n    bytes32 qa = keccak256(question, answerHash);\n    if (riddles[qa].exists) revert();\n    riddles[qa].exists = true;\n    riddles[qa].reward = msg.value ;\n    riddles[qa].asker = msg.sender;\n    riddles[qa].question = question;\n    riddleKeys.push(qa);\n  }\n\n  function answerRiddle (string question, string answer) public {\n    bytes32 answerHash = keccak256(answer);\n    bytes32 qa = keccak256(question, answerHash);\n    if (!riddles[qa].exists || riddles[qa].solved) revert();\n\n    riddles[qa].solved = true;\n    riddles[qa].solver = msg.sender;\n    riddles[qa].answer = answer;\n    if (!msg.sender.send(riddles[qa].reward)) revert();\n    Riddle storage riddle = riddles[qa];\n    Solved(\n      riddle.question, \n      riddle.answer, \n      riddle.solver, \n      riddle.reward, \n      answerHash);\n  }\n\n}\n",
  "sourcePath": "/Users/billy/sol/riddle/contracts/RiddleContract.sol",
  "compiler": {
    "name": "solc",
    "version": "0.4.18+commit.9cf6e910.Emscripten.clang"
  },
  "schemaVersion": "1.0.1",
  "updatedAt": "2018-01-24T15:29:05.189Z"
}