{
  "contractName": "RiddleContract",
  "abi": [
    {
      "constant": false,
      "inputs": [
        {
          "name": "question",
          "type": "string"
        },
        {
          "name": "answerHash",
          "type": "bytes32"
        },
        {
          "name": "value",
          "type": "uint256"
        }
      ],
      "name": "askRiddle",
      "outputs": [],
      "payable": false,
      "stateMutability": "nonpayable",
      "type": "function"
    },
    {
      "constant": true,
      "inputs": [],
      "name": "getRiddleCount",
      "outputs": [
        {
          "name": "riddleCount",
          "type": "uint256"
        }
      ],
      "payable": false,
      "stateMutability": "view",
      "type": "function"
    },
    {
      "constant": true,
      "inputs": [
        {
          "name": "qa",
          "type": "bytes32"
        }
      ],
      "name": "getRiddleAtHash",
      "outputs": [
        {
          "name": "exists",
          "type": "bool"
        },
        {
          "name": "solved",
          "type": "bool"
        },
        {
          "name": "reward",
          "type": "uint256"
        },
        {
          "name": "asker",
          "type": "address"
        },
        {
          "name": "solver",
          "type": "address"
        },
        {
          "name": "question",
          "type": "string"
        },
        {
          "name": "answer",
          "type": "string"
        }
      ],
      "payable": false,
      "stateMutability": "view",
      "type": "function"
    },
    {
      "constant": false,
      "inputs": [
        {
          "name": "question",
          "type": "string"
        },
        {
          "name": "answer",
          "type": "string"
        }
      ],
      "name": "answerRiddle",
      "outputs": [],
      "payable": false,
      "stateMutability": "nonpayable",
      "type": "function"
    },
    {
      "constant": true,
      "inputs": [
        {
          "name": "answer",
          "type": "string"
        }
      ],
      "name": "generateHash",
      "outputs": [
        {
          "name": "answerHash",
          "type": "bytes32"
        }
      ],
      "payable": false,
      "stateMutability": "pure",
      "type": "function"
    },
    {
      "constant": true,
      "inputs": [
        {
          "name": "key",
          "type": "uint256"
        }
      ],
      "name": "getRiddleAtKey",
      "outputs": [
        {
          "name": "exists",
          "type": "bool"
        },
        {
          "name": "solved",
          "type": "bool"
        },
        {
          "name": "reward",
          "type": "uint256"
        },
        {
          "name": "asker",
          "type": "address"
        },
        {
          "name": "solver",
          "type": "address"
        },
        {
          "name": "question",
          "type": "string"
        },
        {
          "name": "answer",
          "type": "string"
        }
      ],
      "payable": false,
      "stateMutability": "view",
      "type": "function"
    },
    {
      "inputs": [
        {
          "name": "tokenAddress",
          "type": "address"
        }
      ],
      "payable": false,
      "stateMutability": "nonpayable",
      "type": "constructor"
    },
    {
      "anonymous": false,
      "inputs": [
        {
          "indexed": false,
          "name": "question",
          "type": "string"
        },
        {
          "indexed": false,
          "name": "answer",
          "type": "string"
        },
        {
          "indexed": false,
          "name": "solver",
          "type": "address"
        },
        {
          "indexed": false,
          "name": "reward",
          "type": "uint256"
        },
        {
          "indexed": false,
          "name": "answerHash",
          "type": "bytes32"
        }
      ],
      "name": "Solved",
      "type": "event"
    }
  ],
  "bytecode": "0x6060604052341561000f57600080fd5b604051602080610bfc8339810160405280805160008054600160a060020a03909216600160a060020a03199092169190911790555050610ba8806100546000396000f30060606040526004361061005e5763ffffffff60e060020a60003504166343d93f50811461006357806347099af2146100bd5780635da9ab57146100e25780638797dbcc1461020c578063b063152a1461029f578063cb3ecbf7146102f0575b600080fd5b341561006e57600080fd5b6100bb60046024813581810190830135806020601f820181900481020160405190810160405281815292919060208401838380828437509496505084359460200135935061030692505050565b005b34156100c857600080fd5b6100d06104b0565b60405190815260200160405180910390f35b34156100ed57600080fd5b6100f86004356104b7565b6040518715158152861515602082015260408101869052600160a060020a0380861660608301528416608082015260e060a082018181529060c0830190830185818151815260200191508051906020019080838360005b8381101561016757808201518382015260200161014f565b50505050905090810190601f1680156101945780820380516001836020036101000a031916815260200191505b50838103825284818151815260200191508051906020019080838360005b838110156101ca5780820151838201526020016101b2565b50505050905090810190601f1680156101f75780820380516001836020036101000a031916815260200191505b50995050505050505050505060405180910390f35b341561021757600080fd5b6100bb60046024813581810190830135806020601f8201819004810201604051908101604052818152929190602084018383808284378201915050505050509190803590602001908201803590602001908080601f01602080910402602001604051908101604052818152929190602084018383808284375094965061067195505050505050565b34156102aa57600080fd5b6100d060046024813581810190830135806020601f820181900481020160405190810160405281815292919060208401838380828437509496506109ec95505050505050565b34156102fb57600080fd5b6100f8600435610a51565b600083836040518083805190602001908083835b602083106103395780518252601f19909201916020918201910161031a565b6001836020036101000a0380198251168184511617909252505050919091019283525050602001905060405190819003902060008181526001602052604090205490915060ff161561038a57600080fd5b81151561039657600080fd5b60008054600160a060020a0316906323b872dd903390309086906040516020015260405160e060020a63ffffffff8616028152600160a060020a0393841660048201529190921660248201526044810191909152606401602060405180830381600087803b151561040657600080fd5b6102c65a03f1151561041757600080fd5b50505060405180519050151561042c57600080fd5b6000818152600160208190526040909120805460ff19168217815590810183905560028101805473ffffffffffffffffffffffffffffffffffffffff191633600160a060020a031617905560040184805161048b929160200190610aa9565b50600280546001810161049e8382610b27565b50600091825260209091200155505050565b6002545b90565b60008060008060006104c7610b50565b6104cf610b50565b6000888152600160208181526040928390208054818401546002808401546003850154600486018054969960ff8088169a61010098899004909116999698600160a060020a03958616989490951696929560058d0195879592811615909202600019019091160491601f8301819004810201905190810160405280929190818152602001828054600181600116156101000203166002900480156105b45780601f10610589576101008083540402835291602001916105b4565b820191906000526020600020905b81548152906001019060200180831161059757829003601f168201915b50505050509150808054600181600116156101000203166002900480601f0160208091040260200160405190810160405280929190818152602001828054600181600116156101000203166002900480156106505780601f1061062557610100808354040283529160200191610650565b820191906000526020600020905b81548152906001019060200180831161063357829003601f168201915b50505050509050975097509750975097509750975050919395979092949650565b6000806000836040518082805190602001908083835b602083106106a65780518252601f199092019160209182019101610687565b6001836020036101000a03801982511681845116179092525050509190910192506040915050518091039020925084836040518083805190602001908083835b602083106107055780518252601f1990920191602091820191016106e6565b6001836020036101000a0380198251168184511617909252505050919091019283525050602001905060405190819003902060008181526001602052604090205490925060ff16158061076b5750600082815260016020526040902054610100900460ff165b1561077557600080fd5b6000828152600160205260409020805461ff001916610100178155600381018054600160a060020a03331673ffffffffffffffffffffffffffffffffffffffff199091161790556005018480516107d0929160200190610aa9565b506000805483825260016020819052604080842090910154600160a060020a039092169263a9059cbb923392909190516020015260405160e060020a63ffffffff8516028152600160a060020a0390921660048301526024820152604401602060405180830381600087803b151561084757600080fd5b6102c65a03f1151561085857600080fd5b50505060405180519050151561086d57600080fd5b5060008181526001602081905260409182902060038101549181015490927f705e741e99e685de2e0a945c9d0af3117d21707b7750c2464caa9da9159a9c1f9260048501926005860192600160a060020a0390921691889051600160a060020a0384166040820152606081018390526080810182905260a08082528654600261010060018316150260001901909116049082018190528190602082019060c08301908990801561095e5780601f106109335761010080835404028352916020019161095e565b820191906000526020600020905b81548152906001019060200180831161094157829003601f168201915b50508381038252875460026000196101006001841615020190911604808252602090910190889080156109d25780601f106109a7576101008083540402835291602001916109d2565b820191906000526020600020905b8154815290600101906020018083116109b557829003601f168201915b505097505050505050505060405180910390a15050505050565b6000816040518082805190602001908083835b60208310610a1e5780518252601f1990920191602091820191016109ff565b6001836020036101000a038019825116818451161790925250505091909101925060409150505180910390209050919050565b6000806000806000610a61610b50565b610a69610b50565b6000600289815481101515610a7a57fe5b9060005260206000209001549050610a91816104b7565b959f949e50929c50909a509850965090945092505050565b828054600181600116156101000203166002900490600052602060002090601f016020900481019282601f10610aea57805160ff1916838001178555610b17565b82800160010185558215610b17579182015b82811115610b17578251825591602001919060010190610afc565b50610b23929150610b62565b5090565b815481835581811511610b4b57600083815260209020610b4b918101908301610b62565b505050565b60206040519081016040526000815290565b6104b491905b80821115610b235760008155600101610b685600a165627a7a7230582054f975cb104edeb559c1d0b54b9b42b41b016ba25cd6611c01b2abae671f99cc0029",
  "source": "pragma solidity ^0.4.17;\n\nimport 'installed_contracts/zeppelin/contracts/token/ERC20.sol';\n\ncontract RiddleContract {\n\n  ERC20 token;\n\n  function RiddleContract(address tokenAddress) public {\n    token = ERC20(tokenAddress);\n  }\n\n  /* ---------- */\n\n  struct Riddle {\n    bool exists;\n    bool solved;\n    uint256 reward;\n    address asker;\n    address solver;\n    string question;\n    string answer;\n  }\n  mapping(bytes32 => Riddle) riddles;\n  bytes32[] riddleKeys;\n  \n  /* ---------- */\n\n  event Solved(\n    string question, \n    string answer, \n    address solver, \n    uint256 reward, \n    bytes32 answerHash);\n\n  /* ---------- */\n\n  function generateHash (string answer) public pure returns (bytes32 answerHash) {\n    return keccak256(answer);\n  }\n\n  function getRiddleCount () public view returns (\n    uint256 riddleCount\n  ) {\n    return riddleKeys.length;\n  }\n\n  function getRiddleAtKey (uint256 key) public view returns (\n    bool exists, \n    bool solved, \n    uint256 reward, \n    address asker, \n    address solver, \n    string question, \n    string answer\n  ) {\n    bytes32 qa = riddleKeys[key];\n    return getRiddleAtHash(qa);\n  }\n\n    function getRiddleAtHash (bytes32 qa) public view returns (\n    bool exists, \n    bool solved, \n    uint256 reward, \n    address asker, \n    address solver, \n    string question, \n    string answer\n  ) {\n    Riddle storage riddle = riddles[qa];\n    return (\n      riddle.exists, \n      riddle.solved, \n      riddle.reward, \n      riddle.asker, \n      riddle.solver, \n      riddle.question, \n      riddle.answer);\n    }\n\n  /* ---------- */\n\n  function askRiddle(string question, bytes32 answerHash, uint256 value) public {\n    bytes32 qa = keccak256(question, answerHash);\n    if (riddles[qa].exists) revert();\n    if (value == 0) revert();\n    if (!token.transferFrom(msg.sender, address(this), value)) revert();\n    riddles[qa].exists = true;\n    riddles[qa].reward = value;\n    riddles[qa].asker = msg.sender;\n    riddles[qa].question = question;\n    riddleKeys.push(qa);\n  }\n\n  function answerRiddle (string question, string answer) public {\n    bytes32 answerHash = keccak256(answer);\n    bytes32 qa = keccak256(question, answerHash);\n    if (!riddles[qa].exists || riddles[qa].solved) revert();\n\n    riddles[qa].solved = true;\n    riddles[qa].solver = msg.sender;\n    riddles[qa].answer = answer;\n\n    if (!token.transfer(msg.sender, riddles[qa].reward)) revert();\n    Riddle storage riddle = riddles[qa];\n    Solved(\n      riddle.question, \n      riddle.answer, \n      riddle.solver, \n      riddle.reward, \n      answerHash);\n  }\n\n}\n",
  "sourcePath": "/Users/billy/sol/riddle/contracts/RiddleContract.sol",
  "compiler": {
    "name": "solc",
    "version": "0.4.18+commit.9cf6e910.Emscripten.clang"
  },
  "schemaVersion": "1.0.1",
  "updatedAt": "2018-01-25T11:18:17.092Z"
}